:0E0000000C944E000C9400000C9400000C9424
:10000E0000000C9400000C9400000C9400000C9462
:10001E0000000C9400000C9400000C9400000C9452
:10002E0000000C9400000C9400000C9400000C9442
:10003E0000000C9400000C9400000C9400000C9432
:10004E0000000C9400000000010000000000000001
:10005E00803F2B2A252E3266000080C001002D4ED7
:10006E00414E00494E4600002D4E414E0000040008
:10007E000400540008006002580002006C02600088
:10008E0002008E026800010092026A000000F894DD
:10009E00EE27ECBBF1E0FBBFEBBFE5BF8DE0A2E0CE
:1000AE00BB27ED938A95E9F780E098E0A0E6ED9303
:1000BE000197E9F7ECE7F0E085919591009761F0F3
:1000CE00A591B59105901590BF01F00105900D9287
:1000DE000197E1F7FB01F0CFEFE5EDBFE8E0EEBFF2
:1000EE00C0E6D2E00C94B200AA932497EC81F0E023
:1000FE00EB32A0E0FA0739F40E94E0060E941209E2
:10010E000E94E90624C0EA32A0E0FA0739F40E9400
:10011E00E0060E9462090E94E90619C0EF32A0E0D3
:10012E00FA0739F40E94E0060E94B0090E94E9061F
:10013E000EC0ED32A0E0FA0751F4AD81BE818F8181
:10014E0098850E94EC060E940B090E94E9060E9407
:10015E00F1060C940203EFEFE4BBEFE0E1BBE0E04D
:10016E00E5BBA0E15ED12BD1A8D01E2F1F3F09F415
:10017E00A2C0A3D0EF3FE9F7A4E1B0E00E9462086D
:10018E00133421F41CD10E94F40695C01D3389F559
:10019E00E1E0F0E0E415F50519F00E94190709F405
:1001AE0027C00E941E070E9429070E9448070E942E
:1001BE001E070E945307A0E0B0E080E090E00E948E
:1001CE00990AE0E0EA93A1E0EDD0EEE6F2E0FA93D0
:1001DE00EA93E2E6F0E0FA93EA930E94480784E09D
:1001EE000E943E062896AEE6B2E00AD10E94F406C0
:1001FE0062C01F3231F01A3221F01D3211F01B3263
:10020E0079F5E1E0F0E0E415F50519F00E94190723
:10021E0009F425C01F3211F01A3239F40E941E075C
:10022E000E94290710936D0215C00E941E070E949E
:10023E0029070E9448070E941E070E945307A0E04C
:10024E00B0E080E89FE30E94990A10936C02EAE204
:10025E00E0936D02A12FBFD0E1E0F0E02F012BC0A3
:10026E000E94190709F4ABD0662477244424552440
:10027E00A12FB1D0E0916802F091690260916A02FB
:10028E0070916B02A0E0B0E080E291E40E946209FE
:10029E000E946207A0916802B091690280916A0281
:1002AE0090916B02E12FF0E0F0970E946B070E9495
:1002BE0012090E94620758CFFFCF1A931FEF909A30
:1002CE0091980E947007849B02C017E30AC0859B19
:1002DE0002C018E306C0869B02C019E302C08799CC
:1002EE001FE29098919A0E947007849B02C014E3BB
:1002FE000AC0859B02C015E306C0869B02C016E3AA
:10030E0002C087991AE290989198929A9398A5E0D4
:10031E00B0E00E946208849B02C011E30AC0859B74
:10032E0002C012E306C0869B02C013E302C0879987
:10033E001DE2909891989298939AA5E0B0E00E9451
:10034E006208849B02C013E40AC0859B02C010E3BE
:10035E0006C0869B02C01DE302C087991BE2E12FF7
:10036E0019910895AA93E5B3EF70AE2FE881E07F5F
:10037E00EA2BE5BB8DE08A95F1F7AA9A8DE08A9576
:10038E00F1F7AA988DE08A95F1F777C0AA93A88124
:10039E00E9DFE881E295E883A881E4DF85E88A95C4
:1003AE00F1F76BC0AA93E881F0E0E257FD4FE081D0
:1003BE00A981AE0FEBDF9980888022960895A2E086
:1003CE000E947607ACE0E2DFA1E00E947607E0E053
:1003DE008E2E9E2E0895AA93A881AA3011F09B14FA
:1003EE0048F0E0E0EA938394A82DDCDFA881AA30E0
:1003FE0009F443C09394A89AA881C8DFA8983DC079
:10040E00BA93AA931A93A981BA81ED91A983BA835B
:10041E001E2FE03019F0A12FDEDFF5CF18812396C5
:10042E000895AA93E4B3E06FE4BBA29AA09AA19AAE
:10043E00AA98A898A998B880E881E058E09390020D
:10044E00E881E054E0939102A4E1B0E00E946208DA
:10045E000E947C070E947C070E947C07A0E282DF3C
:10046E0088EC90E00197F1F7A8E290DFA4E08EDF30
:10047E00A5E88CDFA6E08ADFA2DF219608950E9410
:10048E008407E0E0EA83EFE3EB831A930A93EB85AC
:10049E00FC85EF3FAFEFFA0739F40E948B07ACE60D
:1004AE00B0E00E94BA06A5C0EF3FAFE7FA0739F4F5
:1004BE000E948B07ADE6B0E00E94BA069AC0AC85EA
:1004CE00AA2352F40E94EC060E946C080E94900728
:1004DE000E949507EDE2EC93A885A73010F0E6E0B8
:1004EE00E8871885E12F1150E03039F00E949C0703
:1004FE000E94A1070E94A807F5CF0E94AD070E9497
:10050E0012090E94900710E0E0E0F0E060E87FE35F
:10051E000E94A8070E94AD070E94F50988F00E946C
:10052E009C070E94B6070E94A8071F5F173238F07B
:10053E000E948B07A1E7B0E00E94BA065AC0EACF2C
:10054E00103029F40E949507E0E3EC9329C0E12FC7
:10055E001150E03029F10E949C070E94A1070E94D1
:10056E00BD07DF01CB010E94A3060E94A8070E94CF
:10057E00AD070E94B0090E949F080E2F0E9495079A
:10058E00E02FE05DEC93E02FF0E00E949C070E94CC
:10059E006B070E9462090E94C4070E94C907D7CF49
:1005AE00E885E03011F10E949507EEE2EC93E885C4
:1005BE00E150E887EF5FC9F00E94C4070E94B607BA
:1005CE000E9490070E94EC060E949F080E2F0E9428
:1005DE009507E02FE05DEC93E02FF0E00E94C4075A
:1005EE000E946B070E94C907E2CFAE81BF81E0E097
:1005FE00EC93198108812D960895BA93AA931A93B4
:10060E000A93AA81BB8112960E94800A309729F123
:10061E00AA81BB8114960E94800A8F01309761F0E7
:10062E000230E0E01E0780F0F80131978F01AA81B9
:10063E00BB811496ED93FC93AA81BB8112960E9406
:10064E00CE073197AC81A083AA81BB810E94800A1C
:10065E00FF2312F00E94CE0706C0AA81BB81EFEFE6
:10066E00FFEFED93FC9319810881259608950E9462
:10067E008407E0E8EA83EFE3EB830E94BB0AEE8592
:10068E00FF85EF3FAFEFFA0749F4E885F985FA9356
:10069E00EA93A6E7B0E00E94BA06CBC0EF3FAFE701
:1006AE00FA0749F4E885F985FA93EA93A7E7B0E0EB
:1006BE000E94BA06BEC0AB85A73010F0E6E0EB870D
:1006CE001B85E12F1150E03029F00E94D4070E94C3
:1006DE00D907F7CFEC85FD856E857F850E94B50A1B
:1006EE0031F430E00E94D4070E94D90737C03B8511
:1006FE000E94DE0709F008F410C00E94D4070E9481
:10070E00D9070E94DE0740F00E94E9070E94A10768
:10071E000E94EE073F5FF5CF0FC00E94DE0740F448
:10072E000E94E9070E94B6070E94EE073150F5CFEE
:10073E000E94D4070E94D907EC85FD856E857F85C2
:10074E000E94BD070E94EE070E94DE0738F00E944D
:10075E00E9070E94A1070E94EE073F5F10E0EB85BC
:10076E00E117D8F1AC81BD818E819F810E94A107D6
:10077E000E94BD07DF01CB010E94A3060E94D9078C
:10078E00EC81FD816E817F810E94E9070E94B00994
:10079E000E949F080E2F0E94F307E02FE05DEC935E
:1007AE00E02FFF27662777270E94D808AC81BD81EE
:1007BE008E819F810E9462090E94E9070E94A80A09
:1007CE000E940B090E94EE07E12F1F5FE03039F601
:1007DE000E94F307EEE2EC93C2CF0E94FA07319724
:1007EE00AA85A08330302CF43195A885B985EDE229
:1007FE0003C0A885B985EBE2EC930E94FA070E942C
:10080E00FA073197BF01A32FEAE00E943A0AE05D92
:10081E00DB01EC930E94FA073197BF01A32FEAE0A8
:10082E000E94640AE05DDB01EC93A885B985E0E0E7
:10083E00EC930E94C20A60960895BA93AA93EF971A
:10084E0061970E94B90A10E0FE01E85AFF4F01902D
:10085E00F081E02DE887F987FE01EA5AFF4F0190FB
:10086E00F081E02DEE83FF83AE81BF81E0E0F0E00A
:10087E00ED93FC93DE01A45ABF4F0E94CE07319731
:10088E00E4912E2FE03009F4E9C1E12FE03039F484
:10089E00253211F411E002C00E940008DEC1E130E1
:1008AE00C1F4253219F40E940008D6C112E0E0E02E
:1008BE00ED8B00E02D3211F401E0CFC12B3219F493
:1008CE00EBE2ED8BCAC1203219F4E0E2ED8BC5C12B
:1008DE0002C0E23039F450E013E0203311F4006826
:1008EE00BCC102C0E33091F4203310F02A3308F07B
:1008FE0007C0AAE05A9F502DE22FE0535E0FADC104
:10090E0040E02E3211F414E0A8C10FC0E43099F487
:10091E00203310F02A3308F008C00062AAE04A9F84
:10092E00402DE22FE0534E0F98C12C3619F4026081
:10093E0015E093C103C0E53009F08FC1E22FE33615
:10094E0059F40E9407080E940E080E940708A4810D
:10095E00AA930E94150880C1E53411F0E53609F41A
:10096E0003C0E63609F048C0FE017696EE87FF8793
:10097E000E941B080E94840A0E9422080E942708D7
:10098E00AD85AA2332F0AD89AB3259F0A03281F099
:10099E0017C00E9429080E946C080E942208EDE2EE
:1009AE00ED8B07FF05C0ED89EA930E94150808C07C
:1009BE00EE85FF853196EE87FF873197AD89A0834F
:1009CE0005FF46E0263651F40E9429080E949E0A31
:1009DE004A93AB89BC890E94460209C00E9429082D
:1009EE000E949E0A4A932A93AC89BD8940DEFE017D
:1009FE0076960E942E081EC0E33739F40E9427080F
:100A0E000E9436080E942E080EC0E037C1F40E94E4
:100A1E0027080E943608EE87FF87AE85BF850E94A5
:100A2E00D3061E2F08600F77403011F0411708F0E3
:100A3E0001C0142F40E0E0E0EC8B30E06DC0E436F6
:100A4E0011F0E93611F4046002C0E537A1F4EAE0D2
:100A5E00EC8B01FF08C0E0E0FAEC6AE97BE30E9450
:100A6E003B081AE022C0E0E1F7E260E070E00E948D
:100A7E003B0815E01AC0E83511F4086003C0E837EA
:100A8E0009F0EAC0E0E1EC8B01FF08C0E0E0F0E025
:100A9E0060E070E10E943B0818E007C0E0E0F0E182
:100AAE0060E070E00E943B0814E0403011F00F77D8
:100ABE0001C041E001FF08C00E9427080E941B08E8
:100ACE0014960E94840A0FC002FF07C00E942708D6
:100ADE000E9436080E94270A06C00E9427080E941C
:100AEE00360866277727EA87FB876C877D8702FFA4
:100AFE0012C0AD85AA2342F40E9429080E94190A49
:100B0E000E942208EDE2ED8BED89E03019F01F5FB7
:100B1E004F5F01C00B7F342F00FD14C0151710F46A
:100B2E00351708F00FC007FF08C002FF04C00B7F87
:100B3E002D89115001C020E301C020E20E9400085F
:100B4E005150ECCF141790F4006102FF06C00E94C2
:100B5E00400809F0515011504150E0E3EA930E94D1
:100B6E001508503009F051504150ECCF312FEC891F
:100B7E00E030B9F43030A1F003FF06C0EE85FF85FA
:100B8E002591EE87FF8705C0AE85BF852D91AE8777
:100B9E00BF870E940008503009F051503150EACF03
:100BAE0051C00E9452080E943F0A2E2F2A3030F068
:100BBE0003FF02C0295C01C0295A01C0205D04FD5B
:100BCE0021C0213360F4A889B9898A899B89A13013
:100BDE00E0E0BE07E0E08E07E0E09E0709F40BC000
:100BEE00431740F4531710F000FF01C010C020E26D
:100BFE0007FF08C020E3006102FF04C00E94400806
:100C0E0009F051500E940008503009F051503150F7
:100C1E000E9452080E94700A0E942208EC89A8893C
:100C2E00B9898A899B89FF27662777270E943F0A01
:100C3E000E943B08E889F9896A897B890E94B50A76
:100C4E0009F0AFCF00FF08C0503031F05150E0E254
:100C5E00EA930E941508F8CF10E00CCEAE81BF814A
:100C6E000E94800A0E94C00AEF966F960895FF9226
:100C7E00F82E26970E94BB0A0E945B08309719F443
:100C8E00EFEFFFEF23C0DE0116960E94150A8D01CD
:100C9E000E945B08EE83FF83E0E0E887E987DE01D0
:100CAE001A960E94150A0E94800AFA93EA931A93E2
:100CBE000A93E4E0F3E0FA93EA93DE011A96BDDDBF
:100CCE009F01AE81BF81E0E0EC93F9010E94C20A60
:100CDE002A96FF9008950E94A30A7B816A81F9816A
:100CEE00E88177FB770F67FD7160972F9E5781F034
:100CFE0078F0983190F4AA27BB2788270894879517
:100D0E00B795A7959A95D1F7EA23FB23682305C0DB
:100D1E00E8947727EE27FF2766276F77769508F4F6
:100D2E00606877F9A991B99189919991EA17FB07B2
:100D3E006807790797FB08950E94A30A0E948F0AFD
:100D4E000E9472060E94E90619F40E94F10609C07B
:100D5E00E6F70E94F106A0E0B0E080E89FE30E9473
:100D6E000B0924960895BA93AA93E991F991A99142
:100D7E00B991CD0105900D920020E1F7FC01089587
:100D8E00BA93AA93A991B991EE27FF276D91662385
:100D9E0011F03196FBCF0895BA93AA93AA27BB27D9
:100DAE00E991F9910590002011F01196FBCFFD010C
:100DBE000895ED81FE816F817885A985BA858B8531
:100DCE009C8508950E94940A0895E985FA856B859D
:100DDE007C8508950E948A0A0895E0E0E0936002FF
:100DEE00E0936102E0936202E0936302E4E6F2E0D4
:100DFE00A0E0B0E080E89FE30E94990AE8E6F2E006
:100E0E00A0E0B0E080E090E00E94990AEBE2E0936F
:100E1E006C02EAE2E0936D0244245524E1E0F0E036
:100E2E003F010895E1E0F0E0E615F7050895E09141
:100E3E006402F091650260916602709167020E94F1
:100E4E009E0A0895E0916802F091690260916A022B
:100E5E0070916B020E949E0AA0916D020E947B000F
:100E6E00E0936402F09365026093660270936702EA
:100E7E00E8E6F2E0A0E0B0E080E090E00E94990A9F
:100E8E000895E0916002F0916102609162027091AA
:100E9E0063020E949E0A0895A0916C020E947B003C
:100EAE00E0936002F09361026093620270936302BA
:100EBE00E4E6F2E00895E0936802F093690260932D
:100ECE006A0270936B0208950E94270A0E94D80846
:100EDE00089592989398A5E0B0E00C9462080E9451
:100EEE00CD01A3E0B0E00C946208A0E30E94B9012A
:100EFE0088EC90E00197F1F70895BA93AA9324979E
:100F0E00E0E0E883E9830895EE81FF81FA93EA93A6
:100F1E000895E987FA876B877C870895AE81BF8134
:100F2E001196AE83BF8311970895AA81BB818C81E0
:100F3E009D810895EDECFCEC6CEC7DE30E94620962
:100F4E000895EA83FB836C837D830895EA81FB8198
:100F5E006C817D81A985BA858B859C850895E0E09D
:100F6E00F0E060E271E40E9462090895A0E0B0E052
:100F7E0080E09FE30E9412090895A985BA858B85AA
:100F8E009C8508950E94A80A0E940B09C2CFED917C
:100F9E00FD913196FE93EE930895AC81BD818E81C5
:100FAE009F81DDCFEC83FD836E837F830895EC817B
:100FBE00FD816E817F81AC85BD858E859F850E946A
:100FCE00F5090895AC85BD858E859F850895EC87BE
:100FDE00FD876E877F870895A885B9851196A887A6
:100FEE00B98711970895E885F9853196E887F987CD
:100FFE0008952A93AF81B885E985FA8509950895F4
:10100E00FE01E65AFF4F0190F081E02D08953497CE
:10101E00DE01A65ABF4FED93FC930895AF81B885BC
:10102E00E985FA8509950895DE01A65ABF4F0D9000
:10103E00BC91A02D0895EA87FB876C877D87089564
:10104E00DFDFE5CFEA85FB856C857D850895EE872C
:10105E00FF87AE85BF850E94C7061E2F0895E4DF69
:10106E0014960E94800A0895E88BF98B6A8B7B8B0D
:10107E0008950B7FED89EA93DE01A95ABF4F0D90BB
:10108E00BC91A02DFE01E75AFF4F0190F081E02D9B
:10109E00099550300895E889F9896A897B89AA856E
:1010AE00BB858C859D850895DE011C960E94150AD0
:1010BE000E94800A0895109639F080ED97E001970E
:1010CE00F1F7A8951197C9F70895309760407040D1
:1010DE0009F070580895552342F4503811F4E0FF8A
:1010EE0004C03196691F791F6BF050E8572711F431
:1010FE005F93CFC05F3F31F0660F000C5795679539
:10110E00752F08955F9300200AF0CFC0C8C050E835
:10111E00192E1522880F991F9527550F879550E880
:10112E00072E0522660F771F7527550F67950895B1
:10113E00689401C0E8945F93F2DF703818F07F3F37
:10114E0008F4A7C056E1571BAAF4519558300EF477
:10115E00593030F0EFEFFFEF6FEF7FE777F91AC0FE
:10116E0077275523B9F0EE0FFF1F661F771F5A958D
:10117E00D1F710C07727583028F0EF2FF62F672FB2
:10118E005850F9CF552331F076956795F795E79539
:10119E005A95D1F700200AF445D15F9108956894CD
:1011AE0001C0E894309760407040B1F0002426F002
:1011BE00772312F4009436D1172E7EE1112032F0EF
:1011CE007A95EE0FFF1F661F111CF9CFEF2FF62F2A
:1011DE00612D5F938ADF5F9108954F93AF01FD01FB
:1011EE00DA01AB01BC01CA01402D012C142E4F9126
:1011FE000895EA0FFB1F681F0895E095F09560951E
:10120E00EF5FFF4F6F4F08955F9381DF903871F15D
:10121E0050E8152604C05F937ADF903839F17038A4
:10122E0021F1572F591B2BF112F4D7DFFACF58317A
:10123E0018F0AA27BB278827583028F0AB2FB82FD5
:10124E0088275850F9CF552329F08695B795A7953D
:10125E005A95D9F7502D512572F0CBDF38F467959A
:10126E00F795E795739513F420C0B7DF3EDF5F91D6
:10127E000895D8F7FBCFEA1BFB0B680B51F010F467
:10128E000094BBDF662392F3EE0FFF1F661F7A9565
:10129E00CBF7EE27FF27662777275F910895EFEFAD
:1012AE00FFEF6FE77FEF5F910895EFEFFFEF6FE7CF
:1012BE007FE75F9108955F932ADF703851F390387E
:1012CE0041F301240894791F23F41CF300203AF310
:1012DE00ECCF0F921F932F933F934F9311272227FB
:1012EE009927689FA0018F9F302D410D591F6B9F2D
:1012FE00300D411D591F8E9F27D0BF9F25D06A9F4D
:10130E0023D0BE9F1DD0AF9F1BD0AE9F110D291FA6
:10131E00391F491F591FE32FF42F652F522F4F915D
:10132E003F912F911F910F9066232AF0550FEE1FBC
:10133E00FF1F661F02C073954BF2CDDE5F910895BD
:10134E00100D211D391F02C0200D311D491F591FBF
:10135E0008955F93DCDE703821F411200AF49FCFDC
:10136E00A4CF903809F495CF01240894970B1BF461
:10137E00D4F30020F3CF792F1F932F933F934F93E6
:10138E0011241127222733274427552790E2AE1721
:10139E00BF078607410730F0AE1BBF0B860B410B14
:1013AE00089401C08894551F221F331F111CAA1FB9
:1013BE00BB1F881F441F9A9551F7F901612D4F915C
:1013CE003F912F911F91662332F0550FEE1FFF1F95
:1013DE00661F7A9543F27FDE5F91089599239AF006
:1013EE00772342F0971748F029F4AE17BF07860708
:1013FE0020F031F098948894089598940894089564
:10140E001894889408957723C2F7971798F3A9F73D
:10141E00EA17FB07680788F399F3ECCF0024AF0DAA
:10142E00B01D0895F09560957095E195FF4F6F4F43
:10143E007F4F0895FE2FFF0FFF0B6F2F7F2F089505
:10144E006F2F660F660B762F0895002498E0AA0F73
:10145E00001C0E1A10F40E0E01C0A1609A95B9F779
:10146E00EA2FA02D089539D0F0DF0EF4E1950895FE
:10147E003F934F935F93002411244427552730E266
:10148E00AA0FBB1F881F991F001C111C441F551F3C
:10149E000E1A1F0A460B570B28F40E0E1F1E461F60
:1014AE00571F01C0A1603A9559F7FD01BC01D0014B
:1014BE00CA015F914F913F910895E894A7FF02C032
:1014CE00A1956894E7FDE195C0DFEA2F0EF4E19552
:1014DE000895CEDFFD01BC010895E894E7FF02C038
:1014EE00E1956894A7FF04C0A19500F8039400FA53
:1014FE000895ED91FC9111970895ED91FD916D91E7
:10150E007C9113970895E881F9816A817B81089512
:10151E00A881B9818A819B810895E883F9836A83C2
:10152E007B830895A083B1838283938308957A93F6
:10153E006A93FA93EA9308959A938A93BA93AA9325
:10154E000895182E862F612D192E972F712D1B2E73
:10155E00BF2FF12D1A2EAE2FE12D0895309760403A
:10156E00704008955A934A933A932A931A930A9382
:10157E0008955D814C813B812A81198108810895EE
:00000001FF
