:0E0000000C943B000C9400000C9400000C9437
:10000E0000000C9400000C9400000C9400000C9462
:10001E0000000C9400000C9400000C9400000C9452
:10002E0000000C9400000C9400000C9400000C9442
:10003E0000000C9400000C9400000C9400000C9432
:10004E0000000C9400001027E80364000A00010071
:10005E00001000011000010025642525200080C03D
:10006E00020080026C000000F894EE27ECBBF1E079
:10007E00FBBFEBBFE5BF8DE0A2E0BB27ED938A95FA
:10008E00E9F780E098E0A0E6ED930197E9F7EEE658
:10009E00F0E085919591009761F0A591B59105904D
:1000AE001590BF01F00105900D920197E1F7FB014C
:1000BE00F0CFEFE5EDBFE8E0EEBFC0E6D2E00C9486
:1000CE009300889A9098A4E1B0E00E947503909AEC
:1000DE00089588988099FECF809BFECF8099FECFA1
:1000EE0008951A930A9310E000E0183088F41F5F09
:1000FE00809BFECF80E58A95F1F7809B05C0E02FAF
:10010E00EE0FE1600E2F01C0000F8099FECFEDCFF4
:10011E00E02F099119910895B89AC098A0E1B4D032
:10012E0074D0CFDFD6DFDDDFAE2EBB24DADFCE2EEE
:10013E00DD24D7DF6E2E7724D4DF8E2E9924D1DFE7
:10014E004E2E5524F601EA0DFB1DE60DF71DE80DAA
:10015E00F91DE419F50929F7E0E0EA93A0E044D08F
:10016E00E0E6F2E0FA93EA93E6E6F0E0FA93EA9339
:10017E00F5010E9487030E94940384E00E94EE0220
:10018E002896A0E6B2E06FD0E8E2F0E0EA15FB05B3
:10019E002CF4ECE3F0E0AE16BF060CF002C0C098F3
:1001AE0001C0C09ABECFFFCFAA93E5B3EF70AE2FBA
:1001BE00E881E07FEA2BE5BB8DE08A95F1F7AA9AFC
:1001CE008DE08A95F1F7AA988DE08A95F1F789C0AE
:1001DE00AA93A881E9DFE881E295E883A881E4DFAC
:1001EE0085E88A95F1F77DC0AA93E881F0E0E058A2
:1001FE00FD4FE081A981AE0FEBDFE981E093840230
:10020E00E881E093850222960895A2E00E943B03C6
:10021E00ACE0DEDFA1E00E943B03E0E0E09385026C
:10022E00E09384020895AA93A881AA3031F0E09158
:10023E008602A0918402AE1760F0E0E0EA93A091EE
:10024E008502AF5FA0938502CFDFA881AA3009F4A3
:10025E0048C0E0918402EF5FE0938402A89AA881DF
:10026E00B7DFA8983EC0BA93AA931A93A981BA8110
:10027E00ED91A983BA831E2FE03019F0A12FD3DFA1
:10028E00F5CF188123960895AA93E4B3E06FE4BBEB
:10029E00A29AA09AA19AAA98A898A998E881E09300
:1002AE008602E058E0938202E881E054E0938302F4
:1002BE00A4E1B0E00E9475030E9441030E94410335
:1002CE000E944103A0E270DF88EC90E00197F1F705
:1002DE00A8E27EDFA4E07CDFA5E87ADFA6E078DF87
:1002EE0094DF21960895BA93AA931A930A93AA813A
:1002FE00BB8112960E948C03309759F1AA81BB8163
:10030E0014960E948C038F01309761F00230E0E06A
:10031E001E0798F0F80131978F01AA81BB811496C0
:10032E00ED93FC93AA81BB811296ED91FD913196CE
:10033E00FE93EE933197AC81A083AA81BB810E947C
:10034E008C03FF232AF0ED91FD913196FE93EE93EF
:10035E0006C0AA81BB81EFEFFFEFED93FC931981ED
:10036E00088125960895BA93AA9326970E94990319
:10037E0010E0AC85BD85E0E0F0E0ED93FC93EA89FA
:10038E00FB893196EA8BFB8B3197E4912E2FE0306F
:10039E0009F415C1E12FE03039F4253211F411E0E2
:1003AE0002C00E9449030AC1E130A9F4253219F4B2
:1003BE000E94490302C112E040E000E02D3211F428
:1003CE0001E0FCC02B3211F44BE2F8C0203211F4E4
:1003DE0040E2F4C002C0E23039F450E013E02033C2
:1003EE0011F40068EBC003C0E33009F0E7C020331E
:1003FE0010F02A3308F007C0AAE05A9F502DE22FC2
:10040E00E0535E0FDBC0E22FE33649F40E94500347
:10041E00E889F989A481AA930E945603CEC0E337D6
:10042E0041F40E9450030E945C030E9422031E2F7F
:10043E000AC0E03761F40E9450030E945C030E94E0
:10044E002E031E2F086002600F7730E034C0E436B2
:10045E0011F0E93611F4046002C0E53731F4E4E539
:10046E00F0E0EE83FF8315E00CC0E83511F4086070
:10047E0003C0E83709F0A1C0EEE5F0E0EE83FF839C
:10048E0014E002FF14C00E9450030E946603AB8565
:10049E00AA233AF4EA85FB850E948303EA87FB8749
:1004AE004DE2403011F01F5F01C00B7F04C00E946F
:1004BE0050030E94660300FD11C0151778F407FF64
:1004CE0008C002FF04C00B7F242F115001C020E38F
:1004DE0001C020E20E9449035150EFCF312F01FF9E
:1004EE0017C03030A1F003FF06C0EE81FF812591C9
:1004FE00EE83FF8305C0AE81BF812D91AE83BF8396
:10050E000E944903503009F051503150EACF4BC090
:10051E0020E3EE81FF810E949003E887F987EE8148
:10052E00FF813296EE83FF83E885F985AA85BB8528
:10053E00AE17BF0750F02F5FA885B985EA85FB85FA
:10054E00EA1BFB0BEA87FB87EFCF2A3328F003FF6A
:10055E0002C0295F01C0295D04FD1AC0213320F4B9
:10056E00A885B985119709F409C0531710F000FF3B
:10057E0001C013C020E207FF0BC020E3006102FFA1
:10058E0007C00B7F4A930E945603503009F051501A
:10059E000E944903503009F051503150A885B98559
:1005AE00129708F0B5CF00FF08C0503031F051500F
:1005BE00E0E2EA930E945603F8CF10E0E0CEAC855D
:1005CE00BD850E948C030E94A00364960895FF923D
:1005DE00F82E26970E949B030E946E03309719F403
:1005EE00EFEFFFEF23C0DE0116960E947F038D0111
:1005FE000E946E03EE83FF83E0E0E887E987DE0169
:10060E001A960E947F030E948C03FA93EA931A9320
:10061E000A93EAE7F1E0FA93EA93DE011A96A3DE73
:10062E009F01AE81BF81E0E0EC93F9010E94A2032D
:10063E002A96FF900895BA93AA93A991B991EE279D
:10064E00FF276D91662311F03196FBCF0895BA9373
:10065E00AA93AA27BB27E991F9910590002011F0E2
:10066E001196FBCFFD0108950E94EF00A3E0B0E0CC
:10067E000C947503A0E30E94DB0088EC90E00197D8
:10068E00F1F708952A93AD85BE85EF85F889099512
:10069E000895E889F9893497E88BF98B0895AD852B
:1006AE00BE85EF85F88909950895A889B9891496AC
:1006BE000E948C03EE83FF83AE81BF810895A889CB
:1006CE00B98914960E948C03EA87FB870895DE0190
:1006DE001C960E947F030E948C030895109639F099
:1006EE0080ED97E00197F1F7A8951197C9F7089556
:1006FE000024AF0DB01D0895F195E195F0400895D9
:10070E006F2F660F660B762F0895ED91FC91119762
:10071E0008950590F491E02D08957A936A93FA93D3
:10072E00EA9308955A934A933A932A931A930A9303
:10073E0008955D814C813B812A811981088108953C
:00000001FF
