:0A0000000C943E000C9400000C94D8
:10000A0000000C9400000C9400000C9400000C9466
:10001A0000000C9400000C9400000C9400000C9456
:10002A0000000C9400000C9400000C9400000C9446
:10003A0000000C9400000C9400000C9400000C9436
:10004A0000000C9400000C9400001027E8036400E0
:10005A000A000100001000011000010001002564DF
:10006A00000080C0020004006600020068026C0002
:10007A000000F894EE27ECBBF1E0FBBFEBBFE5BF55
:10008A008DE0A2E0BB27ED938A95E9F780E098E03E
:10009A00A0E6ED930197E9F7EEE6F0E085919591F8
:1000AA00009761F0A591B59105901590BF01F001F7
:1000BA0005900D920197E1F7FB01F0CFEFE5EDBF57
:1000CA00E8E0EEBFC0E6D2E00C94B200AA93E88161
:1000DA00E06CE7B98BE18A95F1F7369A349BFECF4B
:1000EA00349AE4B1F5B10C949103BA93AA93E9E076
:1000FA000E94AC03E8E00E94AC03ECE00E94AC036F
:10010A00E4E00E94AC03E6E00E94AC03E2E00E9455
:10011A00AC03E3E00E94AC03E1E00E94AC030C9460
:10012A003103BA93AA93E0E90E94AC03E0E80E9483
:10013A00AC03E0EC0E94AC03E0E40E94AC03E0E60E
:10014A000E94AC03E0E20E94AC03E0E30E94AC032D
:10015A00E0E10E94AC030C943103EFEFE1BBE0E075
:10016A00E2BBEFEFE7BBE0ECE7B9E3E8E6B9E0E0D2
:10017A00E0BFA4E6B0E00E94EB03A0E10E946503A1
:10018A00A0E0A4DF0E94FD038F0108BBF201E13069
:10019A00A0E0FA0779F40432E0E01E0718F0E2E082
:1001AA00F0E02F010F30E0E01E0718F4E3E0F0E082
:1001BA002F013DC0E230A0E0FA0779F40931E0E00E
:1001CA001E0718F4E1E0F0E02F010932E0E01E0713
:1001DA0018F0E4E0F0E02F012AC0E330A0E0FA07CB
:1001EA0041F40F31E0E01E0718F0E1E0F0E02F01E2
:1001FA001EC0E430A0E0FA0779F40332E0E01E07FB
:10020A0018F4E2E0F0E02F010E32E0E01E0718F0E9
:10021A00E5E0F0E02F010BC0E530A0E0FA0739F481
:10022A000832E0E01E0718F4E4E0F0E02F01E2E013
:10023A00F0E0E415F50519F4ACE2B1E056DFE4E0CC
:10024A00F0E0E415F50519F4A8ECB0E04EDFE5E0BE
:10025A00F0E0E415F50519F4A4E6B0E046DFE3E0C2
:10026A00F0E0E415F50519F4A4E6B0E05ADFE0E0A1
:10027A00EA93A0E00E942603E0E6F2E0FA93EA930A
:10028A00E8E6F0E0FA93EA93F801662777270E94F6
:10029A000A0484E00E94D2022896A0E6B2E00E94F4
:1002AA005403AFED0E943F03A3E40E943F0368CFCB
:1002BA00FFCFBA93AA931A930A93AA81BB81129683
:1002CA000E940204309759F1AA81BB8114960E94B8
:1002DA0002048F01309761F00230E0E01E0798F0C7
:1002EA00F80131978F01AA81BB811496ED93FC9393
:1002FA00AA81BB811296ED91FD913196FE93EE9300
:10030A003197AC81A083AA81BB810E940204FF239A
:10031A002AF0ED91FD913196FE93EE9306C0AA81E3
:10032A00BB81EFEFFFEFED93FC93198108812596CE
:10033A000895BA93AA9326970E940F0410E0AC85F9
:10034A00BD85E0E0F0E0ED93FC93EA89FB89319604
:10035A00EA8BFB8B3197E4912E2FE03009F415C11B
:10036A00E12FE03039F4253211F411E002C00E9485
:10037A00B1030AC1E130A9F4253219F40E94B1038C
:10038A0002C112E040E000E02D3211F401E0FCC0AD
:10039A002B3211F44BE2F8C0203211F440E2F4C0DF
:1003AA0002C0E23039F450E013E0203311F400685F
:1003BA00EBC003C0E33009F0E7C0203310F02A3362
:1003CA0008F007C0AAE05A9F502DE22FE0535E0FB3
:1003DA00DBC0E22FE33649F40E94B803E889F989C1
:1003EA00A481AA930E94BE03CEC0E33741F40E94BF
:1003FA00B8030E94C4030E9493031E2F0AC0E03769
:10040A0061F40E94B8030E94C4030E949F031E2F36
:10041A00086002600F7730E034C0E43611F0E93644
:10042A0011F4046002C0E53731F4E4E5F0E0EE834C
:10043A00FF8315E00CC0E83511F4086003C0E83703
:10044A0009F0A1C0EEE5F0E0EE83FF8314E002FFBD
:10045A0014C00E94B8030E94CE03AB85AA233AF4C3
:10046A00EA85FB850E94F903EA87FB874DE2403063
:10047A0011F01F5F01C00B7F04C00E94B8030E94E5
:10048A00CE0300FD11C0151778F407FF08C002FF5C
:10049A0004C00B7F242F115001C020E301C020E2C9
:1004AA000E94B1035150EFCF312F01FF17C03030F6
:1004BA00A1F003FF06C0EE81FF812591EE83FF8341
:1004CA0005C0AE81BF812D91AE83BF830E94B10367
:1004DA00503009F051503150EACF4BC020E3EE8141
:1004EA00FF810E940604E887F987EE81FF81329630
:1004FA00EE83FF83E885F985AA85BB85AE17BF071A
:10050A0050F02F5FA885B985EA85FB85EA1BFB0BAE
:10051A00EA87FB87EFCF2A3328F003FF02C0295F5F
:10052A0001C0295D04FD1AC0213320F4A885B985CC
:10053A00119709F409C0531710F000FF01C013C046
:10054A0020E207FF0BC020E3006102FF07C00B7F18
:10055A004A930E94BE03503009F051500E94B103E1
:10056A00503009F051503150A885B985129708F0DA
:10057A00B5CF00FF08C0503031F05150E0E2EA93A5
:10058A000E94BE03F8CF10E0E0CEAC85BD850E9484
:10059A0002040E94160464960895FF92F82E269784
:1005AA000E9411040E94D603309719F4EFEFFFEF6F
:1005BA0023C0DE0116960E94F5038D010E94D60320
:1005CA00EE83FF83E0E0E887E987DE011A960E945E
:1005DA00F5030E940204FA93EA931A930A93EEE54A
:1005EA00F1E0FA93EA93DE011A96A3DE9F01AE8147
:1005FA00BF81E0E0EC93F9010E9418042A96FF906B
:10060A000895AA93E5B3EF70AE2FE881E07FEA2B55
:10061A00E5BB8DE08A95F1F7AA9A8DE08A95F1F704
:10062A00AA988DE08A95F1F777C0AA93A881E9DFA5
:10063A00E881E295E883A881E4DF85E88A95F1F705
:10064A006BC0AA93E881F0E0E859FD4FE081A981E7
:10065A00AE0FEBDF7980688022960895A2E00E94AF
:10066A00DD03ACE0E2DFA1E00E94DD03E0E06E2EF4
:10067A007E2E0895AA93A881AA3011F0791448F021
:10068A00E0E0EA936394A62DDCDFA881AA3009F49E
:10069A0043C07394A89AA881C8DFA8983DC0BA93AA
:1006AA00AA931A93A981BA81ED91A983BA831E2FBD
:1006BA00E03019F0A12FDEDFF5CF188123960895D7
:1006CA00AA93E4B3E06FE4BBA29AA09AA19AAA986B
:1006DA00A898A9989880E881E058E0936A02E8818E
:1006EA00E054E0936B02A4E1B0E00E94EB030E94A5
:1006FA00E3030E94E3030E94E303A0E282DF88ECA3
:10070A0090E00197F1F7A8E290DFA4E08EDFA5E878
:10071A008CDFA6E08ADFA2DF21960895BA93AA9316
:10072A00A991B991EE27FF276D91662311F03196B1
:10073A00FBCF0895BA93AA93AA27BB27E991F99107
:10074A000590002011F01196FBCFFD010895E2BB40
:10075A00A881B9810C94EB032A93AD85BE85EF85F8
:10076A00F88909950895E889F9893497E88BF98B0E
:10077A000895AD85BE85EF85F88909950895A889FC
:10078A00B98914960E940204EE83FF83AE81BF8169
:10079A000895A889B98914960E940204EA87FB87FA
:1007AA000895DE011C960E94F5030E940204089532
:1007BA000E941A03A3E0B0E00C94EB03A0E30E94AA
:1007CA00060388EC90E00197F1F70895109639F046
:1007DA0080ED97E00197F1F7A8951197C9F7089569
:1007EA000024AF0DB01D0895F195E195F0400895EC
:1007FA00F695E795F695E7950895ED91FC91119791
:10080A0008950590F491E02D08957A936A93FA93E6
:10081A00EA9308955A934A933A932A931A930A9316
:10082A0008955D814C813B812A811981088108954F
:00000001FF
