:0A0000000C9430000C9400000C94E6
:10000A0000000C947C000C9400000C9400000C94EA
:10001A0000000C945D000C9400000C9400000C94F9
:10002A0000000C9400000C9400000C9400000C9446
:10003A0000000C9400000C9400000C9400000C9436
:10004A0000000C9400000C94000000000000040062
:10005A00040054000000F894EE27ECBBF1E0FBBF6B
:10006A00EBBFE5BF8DE0A2E0BB27ED938A95E9F7E8
:10007A0080E098E0A0E6ED930197E9F7E8E5F0E083
:10008A0085919591009761F0A591B591059015908C
:10009A00BF01F00105900D920197E1F7FB01F0CF46
:1000AA00EFE5EDBFE8E0EEBFC0E6D2E00C948500D4
:1000BA000A921A929A93AA93BA93EA93FA93EFB787
:1000CA00EA93062C072849F4F20131962F01D2014E
:1000DA00EAE0F0E00E94BF002F01E991EFBFF99139
:1000EA00E991B991A9919991199009901895EA9372
:1000FA00EFB7EA93E1E06E26E991EFBFE99118952F
:10010A00E0E0EABBEFEFE4BBEBB7E06EEBBFEAE09F
:10011A00E5BFE0E0E4BFE0EEEABFE0E0EFBDECE01F
:10012A00EEBDE0E0EDBDECBDE7BDE6BDEAE7EBBD47
:10013A00E2E1EABDE0E0E9BDE8BDE2E1E9BF7894C9
:10014A0045BAFECFFFCFF195E195F040089500241E
:10015A00112490E1AA0FBB1F001C111C0E1A1F0AC2
:10016A0018F40E0E1F1E01C0A1609A9599F7FD01A1
:10017A00D0010895E894B7FF04C0A095B0951196F0
:10018A006894F7FDE0DFE3DFFD010EF4DCDF08959C
:00000001FF
